:020000040800F2
:100000007007002089010008251500081D1500084B
:100010002115000845020008AD1B00080000000083
:10002000000000000000000000000000C1180008EF
:10003000490200080000000029150008C518000842
:10004000A3010008A3010008A3010008A301000800
:10005000A3010008A30100084D020008A301000845
:10006000A3010008A3010008A3010008A3010008E0
:10007000A3010008A3010008A3010008A3010008D0
:10008000A3010008A3010008A3010008A3010008C0
:10009000A3010008A3010008A3010008A3010008B0
:1000A000A3010008A3010008A3010008A3010008A0
:1000B000A3010008A3010008A3010008A301000890
:1000C000A3010008A3010008A3010008A301000880
:1000D000A3010008A3010008A3010008A301000870
:1000E00055020008A3010008A301000800F002F86F
:1000F00000F03AF80AA090E8000C82448344AAF188
:100100000107DA4501D100F02FF8AFF2090EBAE885
:100110000F0013F0010F18BFFB1A43F0010318473B
:10012000F81C0000181D0000103A24BF78C878C1E0
:10013000FAD8520724BF30C830C144BF04680C60ED
:10014000704700000023002400250026103A28BF35
:1001500078C1FBD8520728BF30C148BF0B60704739
:100160001FB51FBD10B510BD00F031F81146FFF7E7
:10017000F7FF01F01DFD00F04FF803B4FFF7F2FFA9
:1001800003BC00F057F800000948804709480047C1
:10019000FEE7FEE7FEE7FEE7FEE7FEE7FEE7FEE737
:1001A000FEE7FEE704480549054A064B7047000094
:1001B000C9180008ED000008700100207007002039
:1001C0007003002070030020704770477047754629
:1001D00000F02CF8AE4605006946534620F00700B3
:1001E000854618B020B5FFF7DDFFBDE820404FF091
:1001F00000064FF000074FF000084FF0000BAC4630
:10020000ACE8C009ACE8C009ACE8C009ACE8C0097A
:1002100021F007018D46704710B50446AFF300800A
:100220002046BDE81040FFF7A8BF00000048704717
:100230001000002001491820ABBEFEE72600020096
:1002400070470000FEE7000070470000012000F04A
:10025000DBB800004FF4806000F0D6B8B0B50446BB
:1002600000F0EEF9054640F20000C2F2000000780E
:10027000611C18BF044400BF00F0E2F9401BA0421B
:10028000FAD3B0BDF0B585B040F60004C4F2010465
:100290000128204638D10821002200F0CBF9E120C6
:1002A0008DF8130020461021002200F0C3F940F21F
:1002B000BC05C2F2000540F270020126C2F2000243
:1002C0000DF1130128460123009600F0F3FD2046AE
:1002D0001021012200F0AEF9E2208DF81100204635
:1002E0001021002200F0A6F90DF111010DF112020A
:1002F00028460123009600F0DDFD20461021012252
:1003000000F098F905B0F0BD4FF40071002200F044
:1003100091F96120029020464FF48071002200F094
:1003200089F940F2700040F21415C2F20000C2F2E6
:1003300000050127421C02A928460323009700F06C
:10034000B9FD40F20E01C2F20001087020464FF4E0
:100350008071012200F06EF9E1208DF80600204640
:100360004FF48071002200F065F90DF107060DF1E0
:100370000601284632460123009700F09BFD2046E7
:100380004FF48071012200F055F9E2208DF805004C
:1003900020464FF48071002200F04CF90DF1050168
:1003A000284632460123009700F084FD20464FF492
:1003B0008071012200F03EF927208DF80F009DF892
:1003C0000700072161F31F108DF8100020464FF43D
:1003D0008071002200F02EF90DF10F010DF10D02D8
:1003E00028460223009700F065FD20464FF48071F7
:1003F000012200F01FF920464FF40071012200F0A5
:1004000019F905B0F0BD000040F21441C4F2010139
:100410000A68024214BF08607047FFF733BF00004C
:100420002DE9F04F82B041F20042C4F201020E68A1
:100430000423904208BF0323002E009300F0F680AF
:1004400040F20C4E4FF6FF7CC4F2010E0022012454
:10045000C1F2100C4FF0000A4FF0000943E000BF5A
:10046000012502F00C040F27A7402BEA070705FA25
:1004700004F43C4343F82640D1F804B040F2004570
:10048000C4F201055FEACB332B6854BF23EA0803AB
:1004900043EA08032B606B685FEA8B3454BF23EA9E
:1004A000080343EA08036B605FEACB24AB6854BFE0
:1004B00023EA080343EA08035FEA8B24AB60DEF813
:1004C00000304FF0010454BF23EA080343EA080355
:1004D000CEF800300E680AF1010A36FA0AF302F18A
:1004E000040200F0A38004FA0AF816EA080FF1D01B
:1004F0004B68634512DC122B56D8DFE803F0350B4E
:100500004549555555555555555555555555554DBF
:10051000510000BFD1F80C9046E000BF4FF6FF77C6
:10052000C1F22107BB420FDC0027C1F21107BB4219
:100530001AD00027C1F21207BB4215D00027C1F222
:100540002107BB4210D02FE00027C1F22207BB4297
:100550000AD00027C1F23107BB4205D00027C1F203
:100560003207BB4220D100BF8B684BB1012B14BFB7
:10057000C0F81480C0F810804FF0080914E000BFE4
:100580004FF0040910E000BFCB6803F108090BE04D
:100590004FF0000908E000BFCB6803F1040903E055
:1005A000CB6803F10C0900BF13460546BAF1080FEA
:1005B00024BF203B04352E680F279F40BE4309FA15
:1005C00003F333432B60CB79DB067FF583AF41F236
:1005D0001804C4F2020423684FEA9A0643F00103A8
:1005E0002360236840F6000403F001030193019B9C
:1005F00040F20043C4F20103A3F57E7353F826B022
:10060000C4F20104A0420FD040F60044C4F2010439
:10061000A0423FF425AF41F20004C4F20104009D62
:10062000A04208BF02251CE700251AE702B0BDE87A
:10063000F08F0000002A08BF090401617047000024
:1006400040F26C10C2F200000068704740F20000F7
:1006500040F26C11C2F20000C2F2000100780A6898
:10066000104408607047000080B542F20000C4F2F8
:100670000200016841F010010160032000F08AF8D7
:100680000F2000F005F800F027F8002080BD0000E2
:1006900070B540F20006C2F2000640F2080132785E
:1006A000C2F200014FF47A730968B3FBF2F2044618
:1006B000B1FBF2F1084600F04FFD0F2C4FF00105A1
:1006C00008D838B94FF0FF3021460022002500F04D
:1006D00035F87460284670BD82B041F21800C4F24B
:1006E00002000168022241F001010160016801F08D
:1006F000010101910199416841F0805141604068D8
:1007000000F08050009000980420C4F201000168BD
:1007100062F31A61016002B070470000002848BF10
:10072000704700F01F01012202FA01F14EF200129F
:100730004009CEF2000242F82010704710B54EF684
:100740000C5CCEF2000CDCF80030C3F3022E8EF00D
:100750000704042C28BF0424BEF103034FF0FF3E1E
:100760000EFA04F438BF0023A14399400EFA03F3B4
:100770009A43114300F00F02043A624409010C321B
:1007800000F16043B0F1FF3FC8BF03F56442117050
:1007900010BD00004EF60C51CEF200010A684FF673
:1007A000FF031A4060F30A2242F0806040F0FD70BF
:1007B000086070472DE9F04381B0002800F0858083
:1007C00042F20008C4F202080446D8F800000D46C0
:1007D00000F0070088420CD2D8F8000020F0070093
:1007E0002843C8F80000D8F8000000F00700A8422D
:1007F0006BD1206841F204098107C4F2020917D5C0
:10080000410705D5D9F8001041F4E061C9F800109E
:10081000010705D5D9F8001041F46051C9F800105E
:10082000D9F80010A26821F0F0011143C9F80010B6
:10083000C00741D1D8F8000000F00700A8420CD949
:10084000D8F8000020F007002843C8F80000D8F8C6
:10085000000000F00700A84237D12068410707D503
:10086000D9F80010E26821F4E0611143C9F80010E2
:10087000000708D5D9F80000216920F4605040EA4B
:10088000C100C9F80000D9F8002002F00C000828C7
:1008900041F20020C0F27A0050D141F60863C2F361
:1008A0008341C0F60003595CD2033BD440F60010EC
:1008B000C0F23D00484341E0606802280AD00128A8
:1008C0002AD159F8041C890308D4012001B0BDE8DD
:1008D000F08300BF59F8041C8901F6D5D9F800103F
:1008E00021F003010843C9F80000FFF7A9FE0646FE
:1008F00041F28837D9F80000616800F00C00B0EBD5
:10090000810F97D0FFF79CFE801BB842F2D90320DD
:1009100001B0BDE8F08300BF59F8041C8907D4D5A5
:10092000DCE700BFD9F8002041F6F653C2F340429D
:10093000C0F600039A5C4843B0FBF2F0D9F800100F
:1009400041F6F852C1F30311C0F60002515C40F2C7
:10095000080220FA01F140F20400C2F2000000682F
:10096000C2F200021160FFF793FE002001B0BDE863
:10097000F08300002DE9F04182B0002868D00446E1
:10098000007841F20006C007C4F2020625D0706864
:1009900000F00C0004281BD0706800F00C00082840
:1009A00002D17068C00313D46068002800F0688129
:1009B000B0F5A02F00F07C81B0F5803F00F07C8185
:1009C000306820F480303060306820F4802076E198
:1009D0003068800301D56068D0B32078800718D5CF
:1009E000706810F00C0F07D0706800F00C00082839
:1009F0006ED17068C0036BD43068800702D520695F
:100A0000012825D13068616920F0F80040EAC10072
:100A10003060207800071FD42078400732D4E56981
:100A200095B1706800F00C00082840F08F80012D0F
:100A30000ED07068216A00F480328A4208D1616A5F
:100A400000F47010884203D1002002B0BDE8F081AC
:100A5000012002B0BDE8F081A069002862D000202A
:100A6000C4F242200121C0F88014FFF7E9FD0546D9
:100A7000706A800700F18C80FFF7E2FD401B0228BE
:100A8000F6D92AE1F06910F0805808D1F06940F0F9
:100A90008050F061F06900F080500090009847F2BB
:100AA0000007C4F200073868C00529D4386840F44C
:100AB00080703860FFF7C4FD054600BF3868C00588
:100AC0001ED4FFF7BDFD401B6428F7D905E100BF28
:100AD0002069002840F20000C4F2422000F0828029
:100AE00001210160FFF7ACFD054600BF30688007BB
:100AF0003FF588AFFFF7A4FD401B0228F6D9ECE0D4
:100B0000E068002800F08080052800F09780012828
:100B100000F09880306A20F001003062306A20F0E6
:100B2000040092E00020C4F242200021C0F88014AA
:100B3000FFF786FD054600BF706A80077FF56CAF42
:100B4000FFF77EFD401B0228F6D9C6E00027C4F25D
:100B5000422700203866FFF773FD022D05460BD1B2
:100B60003068800140F1BE80FFF76AFD401B02281B
:100B70004FF00300F4D968E7306880017FF564AF77
:100B8000FFF75EFD401B02284FF00300F4D95CE73D
:100B900040F20800C2F20000006844F6D351C1F2EE
:100BA0006201A0FB0101480A019000BF00BF01984B
:100BB000411E002801913FF42FAF00BF0198411E54
:100BC000002801913FF428AF00BF0198411E002882
:100BD00001913FF421AF00BF0198411E002801910F
:100BE000E4D119E700210160FFF72AFD054600BFA7
:100BF000306880077FF50DAFFFF722FD401B02280C
:100C00004FF00300F4D920E7306A20F00100306291
:100C1000306A20F004003062FFF712FD054641F211
:100C2000883700BF306A800720D5FFF709FD401BD9
:100C3000B8424FF00300F5D907E700BF306A40F033
:100C400004003062306A40F001003062FFF7F8FCC7
:100C5000054641F2883700BF306A800706D4FFF7A7
:100C6000EFFC401BB842F7D937E000BFB8F1000FE6
:100C70007FF4D5AEF06920F08050F061CFE600BF80
:100C8000306820F480303060306820F4802030609C
:100C9000FFF7D6FC054600BF306880037FF59DAEA8
:100CA000FFF7CEFC401B64284FF00300F4D9CCE6DC
:100CB000306840F480203060306840F4803030602C
:100CC000FFF7BEFC054600BF306880033FF585AEE8
:100CD000FFF7B6FC401B6428F6D9032002B0BDE83C
:100CE000F08100BF206AB0F5803F05D17168A2682D
:100CF00021F40031114371607168626A21F474114A
:100D000010430843706001203866FFF799FC0446E1
:100D1000306880013FF598AEFFF792FC001B022877
:100D20004FF00300F4D990E670B538B10446406A3C
:100D300030B10020206104F1140007E0012070BDF3
:100D40006068B0F5827F03D004F11C0000210160CF
:100D50000026A66294F8510020B9204684F850601D
:100D600000F038F8022084F8510094E8071001F4EC
:100D70008271036802F4044223F040030360236994
:100D800011440CF40062114403F00202636911443F
:100D900003F00102A369E569114403F400721144F0
:100DA00005F03802256A114405F08002A56A114356
:100DB00005F4005211430160042101EA134141602E
:100DC000C16921F40061C1610120666584F85100A8
:100DD000304670BD10B586B0006843F60001C4F21D
:100DE000000188424FF00001CDE90411CDE9021164
:100DF0002CD043F20001C4F20101884257D141F2E4
:100E00001800C4F20200016840F6000441F4805169
:100E100001600168C4F2010401F48051019101995B
:100E2000016841F004010160006802A900F00400BB
:100E300001900198A02002900220039003200590C9
:100E40002046FFF7EDFA402029E000BF41F21800EC
:100E5000C4F20200416841F480414160416801F4FC
:100E6000804101910199016841F008010160006829
:100E700002A900F00800019001984FF42040029070
:100E8000022003900320059040F60000C4F2010008
:100E900000F580642046FFF7C3FA4FF480400290CB
:100EA0000020CDE9030002A92046FFF7B9FA06B0F9
:100EB00010BD00002DE9F04381B0044690F85000C9
:100EC000012803D1022001B0BDE8F08301201E46B5
:100ED00015460F4684F85000FFF7B2FB94F8511006
:100EE000814601290CD06068B0F5827F40F0A08077
:100EF000A06800284FF0020008BF042940F0998044
:100F0000002F4FF0010018BF002D00F09280002E3E
:100F100000F08F8094F85100002104281CBF0520A8
:100F200084F851006165A563E687A6872763E68696
:100F30002068A686216461640168490603D40168BB
:100F400041F0400101606168731EE268B1FA81F10D
:100F5000B3FA83F3DDF8208049095B09B2F5006F2D
:100F600041EA03016ED131B137F8021BC16027633A
:100F7000E08E0138E086012518F1010031D101E051
:100F8000FFF75EFBE08E18B9E08F002800F0C2800A
:100F90002068816889070CD5E18E51B1012D08D1F7
:100FA000216B002531F8022BC2602163E18E0139EB
:100FB000E1868168C907E3D0E18F0029E0D0C068ED
:100FC000A16B012521F8020BA163E08F0138E087B6
:100FD000D6E700BFFFF734FBA0EB0900404580F0E7
:100FE000A980E08E18B9E08F002800F09380206877
:100FF000816889070CD5E18E51B1012D08D1216B93
:10100000002531F8022BC2602163E18E0139E186AF
:101010008168C907DED0E18F0029DBD0C068A16BF1
:10102000012521F8020BA163E08F0138E087D1E7A9
:101030000220012184F85110002184F8501001B0E1
:10104000BDE8F08339B139780173206B013020633A
:10105000E08E0138E086012518F1010032D101E06F
:10106000FFF7EEFAE08E10B9E08F002852D020682A
:10107000816889070ED5E18E61B1012D0AD1216BFE
:10108000002509780173216B206801312163E18E0D
:101090000139E1868168C907E2D0E18F0029DFD0FC
:1010A000C068A16B01250870A06B0130A063E08FC0
:1010B0000138E087D4E700BFFFF7C2FAA0EB0900D0
:1010C000404539D2E08E08B9E08F18B320688168B6
:1010D00089070ED5E18E61B1012D0AD1216B002562
:1010E00009780173216B206801312163E18E013998
:1010F000E1868168C907DFD0E18F0029DCD0C068B4
:10110000A16B01250870A06B0130A063E08F01384E
:10111000E087D1E72046802142464B4600F05EFB47
:1011200060B1606D40F020006065202060650120A6
:101130007FE700BF03207CE703207AE7A068002850
:101140004FF000007FF475AF00902168CA680092EC
:101150008968009100996CE7411E0020B0EB116F87
:101160001CBF012070474EF21002CEF20002516007
:101170004EF62351CEF20001F0230B700721906050
:101180001160704710B590F83C20012A4FF0020220
:1011900033D080F83D200268D2F804E0D2F808C0CD
:1011A0000C682EF07003234340F2FF74C4F2000475
:1011B000A24253600ADCB2F1804F13D040F20043E8
:1011C000C4F200039A420DD011E000BF42F6004382
:1011D000C4F201039A4205D040F60003C4F20003B2
:1011E0009A4204D149682CF080031943916001218F
:1011F000002280F83D1080F83C20104610BD000011
:10120000002804BF0120704710B5044690F83D0047
:1012100028B9002084F83C00204600F067F802203E
:1012200084F83D00206840F2FF730268C4F20003B6
:1012300042F6004C9842C4F2010C15DCB0F1804F2C
:101240001AD040F20041C4F20001884214D0984202
:1012500018DCB0F1804F1DD040F20041C4F2000113
:10126000884217D01AE000BF604505D040F6000163
:10127000C4F200018842EAD1A16822F070020A4358
:101280009842E6DD604505D040F60001C4F2000159
:10129000884203D1216922F440720A43A36922F0F3
:1012A0008001D4F804E0E268194360450160C2623D
:1012B000C0F828E002D16169CCF830100121416109
:1012C000002084F8461084F83E1084F83F1084F81B
:1012D000401084F8411084F8421084F8431084F8D8
:1012E000441084F8451084F83D1010BD81B00068AA
:1012F00042F60041C4F20101884201D001B07047BA
:1013000041F21800C4F20200016841F4006101607A
:10131000006800F400600090009801B07047000081
:1013200090F83D1001291CBF01207047022180F870
:101330003D10006840F2FF71C4F20001884209DCF0
:10134000B0F1804F12D040F20041C4F20001884257
:101350000CD012E042F60041C4F20101884205D0EF
:1013600040F60001C4F20001884206D1816801F014
:101370000701062904BF00207047016841F0010100
:10138000016000207047000080B590F83C20012AE1
:101390004FF0020200F0BF8080F83D20D0F800C07E
:1013A0004FF67772DCF8083023EA0202CCF8082006
:1013B0000B683F2B1CDD5F2B20DD602B50D0B3F57D
:1013C000005F6DD0702B40F0A080D1E901E3C968C7
:1013D000DCF8082043EA0E0322F47F4243EA0121AD
:1013E0001143CCF80810DCF8081041F077018AE0CE
:1013F0001F2B29DC63B3102B2AD086E0402B63D04F
:10140000502B40F08280D1F804E0C968DCF820302D
:10141000DCF8202022F00102CCF82020DCF8182093
:1014200022F0F00242EA011123F00A0242EA0E021F
:10143000CCF81810CCF82020DCF8081041F0570147
:1014400021F020015FE000BF202B01D0302B5CD1C8
:10145000DCF8081021F07001194341F0070152E057
:10146000D1F804E0C968DCF8203023F01003CCF890
:101470002030DCF81830DCF8202023F4704322F010
:10148000A00243EA013142EA0E12CCF81810CCF85F
:101490002020DCF8081041F0670121F0100132E053
:1014A000D1E901E3C968DCF8082043EA0E0322F41D
:1014B0007F4243EA01211143CCF80810DCF8081000
:1014C00041F480411FE000BFD1F804E0C968DCF8B6
:1014D0002030DCF8202022F00102CCF82020DCF8BB
:1014E000182022F0F00242EA011123F00A0242EA37
:1014F0000E02CCF81810CCF82020DCF8081041F0CF
:10150000470121F03001CCF808100121002280F8B9
:101510003D1080F83C20104680BD0000FEE7000032
:10152000FEE70000FEE70000704700002DE9F043F1
:1015300089B040F60004C4F20104E1208DF81800DF
:1015400020464FF4807100224FF00008FFF772F838
:1015500040F21415C2F200050DF119064FF0010911
:1015600006A9284632460123CDF80090FFF7A2FCD9
:1015700020464FF480710122FFF75CF8E2208DF8DD
:10158000170020464FF480710022FFF753F80DF149
:101590001701284632460123CDF80090FFF78AFC58
:1015A00020464FF480710122FFF744F89DF819009E
:1015B000072161F31F1027218DF822108DF82300D9
:1015C00020464FF480710022FFF734F80DF1220617
:1015D00008AF284631463A460223CDF80090FFF77F
:1015E00069FC20464FF480710122FFF723F840F296
:1015F0002110ADF8140020464FF480710022FFF74F
:1016000019F805A928463A460223CDF80090FFF7BD
:1016100051FC20464FF480710122FFF70BF84FF484
:101620009170ADF8220020464FF480710022FFF740
:1016300001F8284631463A460223CDF80090FFF7DC
:1016400039FC20464FF480710122FEF7F3FF40F28F
:101650002330ADF8220020464FF480710022FEF7BF
:10166000E9FF284631463A460223CDF80090FFF7BD
:1016700021FC20464FF480710122FEF7DBFF40F28F
:101680002520ADF8220020464FF480710022FEF79D
:10169000D1FF284631463A460223CDF80090FFF7A5
:1016A00009FC20464FF480710122FEF7C3FF42F28D
:1016B0002640ADF8220020464FF480710022FEF74C
:1016C000B9FF284631463A460223CDF80090FFF78D
:1016D000F1FB20464FF480710122FEF7ABFF40F290
:1016E0003120ADF8220020464FF480710022FEF731
:1016F000A1FF284631463A460223CDF80090FFF775
:10170000D9FB20464FF480710122FEF793FF44F687
:101710005400039045F22A00C4F252100290204671
:101720004FF480710022FEF785FF02A90DF11A0225
:1017300028460623CDF80090FFF7BCFB20464FF467
:1017400080710122FEF776FF43F62030ADF80600E7
:1017500020464FF480710022FEF76CFF0DF1060168
:1017600001AA28460223CDF80090FFF7A3FB2046EC
:101770004FF480710122FEF75DFF40F27005C2F266
:101780000005686840F2DB5140F2DC52C0F824806A
:10179000436A8B4208D8436A8B4205D8436A8B421E
:1017A00002D8436A9342F3D320464FF400710122DA
:1017B000FEF740FF68680021416200BF416A81294D
:1017C00008D8416A812905D8416A812902D8416A2D
:1017D0008229F3D309B0BDE8F08300002DE9F04180
:1017E00082B01E4690460D460446FEF729FF301A89
:1017F00000EB0807FEF724FF40F20801C2F20001E7
:101800000968C1F3CB317943019121688A682A4084
:10181000AA4227D1064618F101001FD0FEF710FF9B
:10182000801BB84222D2019801990028A1F1010140
:1018300001912168896808BF074601EA0500A842AE
:10184000ECD00FE088682840A8420BD18868284077
:10185000A84207D188682840A84203D18868284058
:10186000A842EFD0002002B0BDE8F081D4E9000129
:101870004268B1F5827F22F0E00242600AD1A1689D
:10188000B1F5004F02D0B1F5806F03D1016821F0AE
:1018900040010160A16AB1F5005F07D1016821F440
:1018A00000510160016841F400510160012084F899
:1018B0005100002084F85000032002B0BDE8F08100
:1018C00070470000FEF7C2BE704700002DE9F04FE0
:1018D0008DB040F600048046C4F20104E1208DF88A
:1018E0003000204610210022FEF7A4FE40F2BC0981
:1018F000C2F200090DF12F064FF0010B0CA948466A
:1019000032460123CDF800B0FFF7D4FA204610216B
:101910000122FEF78FFEE2208DF82E0020461021D6
:101920000022FEF787FE0DF12E01484632460123C4
:10193000CDF800B0FFF7BEFA204610210122FEF7D5
:1019400079FE9DF82F00072161F31F1027218DF8E4
:101950002C108DF82D00204610210022FEF76AFE83
:101960000BAE0DF12A0A4846314652460223CDF805
:1019700000B0FFF79FFA204610210122FEF75AFE21
:1019800040F22110ADF82C00204610210022FEF775
:1019900051FE4846314652460223CDF800B0FFF7CB
:1019A00089FA204610210122FEF744FE4FF491707F
:1019B000ADF82C00204610210022FEF73BFE4846E1
:1019C000314652460223CDF800B0FFF773FA2046A5
:1019D00010210122FEF72EFEB8F80010A0208DF88D
:1019E0002700ADF82810204610210022FEF722FE25
:1019F0000DF127010DF1310248460323CDF800B067
:101A0000FFF758FA204610210122FEF713FE40F29C
:101A10002330ADF82C00204610210022FEF70AFEEC
:101A20004846314652460223CDF800B0FFF742FA4D
:101A3000204610210122FEF7FDFD41F22450ADF8B1
:101A40002C00204610210022FEF7F4FD48463146C6
:101A500052460223CDF800B0FFF72CFA20461021A1
:101A60000122FEF7E7FD40F22520ADF82C002046CC
:101A700010210022FEF7DEFD484631465246022381
:101A8000CDF800B0FFF716FA204610210122FEF72C
:101A9000D1FD42F22640ADF82C0020461021002254
:101AA000FEF7C8FD4846314652460223CDF800B045
:101AB000FFF700FA204610210122FEF7BBFD45F298
:101AC0002A0544F65407C4F252152046102100227C
:101AD00007970695FEF7AEFD0DF1120606A94846DA
:101AE00032460623CDF800B0FFF7E4F92046102176
:101AF0000122FEF79FFDA81DCDE902072046102117
:101B00000022FEF797FD02A9484632460623CDF88B
:101B100000B0FFF7CFF9204610210122FEF78AFD21
:101B200045F62020ADF80600204610210022FEF7E1
:101B300081FD0DF1060101AA48460223CDF800B04F
:101B4000FFF7B8F9204610210122FEF773FD40F29D
:101B50007005C2F2000568680021416240F2DB5165
:101B600040F2DC52436A8B4208D8436A8B4205D864
:101B7000436A8B4202D8436A9342F3D3204608213A
:101B80000122FEF757FD686800214162416A092978
:101B900008D8416A092905D8416A092902D8416A49
:101BA0000A29F3D30DB0BDE8F08F0000FEE7000076
:101BB00090B0FEF759FD00240120CDE90B44CDE99A
:101BC000094406904FF480310A90022506A8CDE919
:101BD0000714CDE90D510F94FEF7CCFE20B1EFF3C1
:101BE000108072B6FEE700BF0F20CDE90005684601
:101BF0000021CDE902440494FEF7DCFD20B1EFF3AF
:101C0000108072B6FEE700BF41F21800C4F2020075
:101C1000016840F6000441F0200101600168C4F24F
:101C2000010401F02001069106990168002241F0AB
:101C3000040101600168002601F004010691069983
:101C4000016841F00801016000684FF4027100F082
:101C50000800069006982046FEF7ECFC20464FF45C
:101C6000887101220127FEF7E5FC4FF44670CDE9AB
:101C70000607022006AD0990204629460896FEF781
:101C8000CFFB06970027C1F2210704F580602946A3
:101C9000CDE90776FEF7C4FB4FF48060CDE9060777
:101CA000204629460896FEF7BBFB062001210022AC
:101CB000FEF744FD0620FEF731FD28200121002219
:101CC000FEF73CFD2820FEF729FD40F2BC0004F59C
:101CD0002051C2F200004FF482724FF400730827C3
:101CE00080E846000A21C0E90366C0E90563C761D0
:101CF000C0E90866C0E90A61FFF716F820B1EFF302
:101D0000108072B6FEE700BF40F27005C2F2000517
:101D100004F51051284640F8041F0F214FF6FF72BA
:101D20000996CDE90766CDE90066C0E90116C0E96C
:101D30000326C0E90566FFF763FA28B1EFF31080C8
:101D400072B600BFFEE700BF4FF480500435069026
:101D500006A92846FFF718FB20B1EFF3108072B6F2
:101D6000FEE700BF69462846FFF70CFA20B1EFF303
:101D7000108072B6FEE700BF40F21410A4F5504187
:101D8000C2F200004FF4827200234FF4007708265D
:101D900080E80E000A21C0E90333C0E90537C661B7
:101DA000C0E90833C0E90A31FEF7BEFF20B1EFF306
:101DB000108072B6FEE700BF2846FFF7B1FA642034
:101DC000FEF74CFAFFF7B2FB40F20C04C2F200043B
:101DD00040F2014541F2090620462580FFF776FDD5
:101DE0000A20FEF73BFA20462680FFF76FFD0A2007
:101DF000FEF734FAF0E701020000000000000000E6
:101E0000010203040607080902030405060708097E
:101E10000A0B0C0D0E0F1010381E000800000020D9
:101E20001000000028010008481E000810000020D3
:101E300060070000440100080100000010000000DD
:081E40000024F400010201007E
:04000005080000ED02
:00000001FF
